:020000040800F2
:100000000006002089010008C7010008C901000896
:10001000CB010008CD010008CF010008000000005E
:10002000000000000000000000000000D1010008F6
:10003000D301000800000000D5010008D701000826
:10004000D9010008D9010008D9010008D901000828
:10005000D9010008D9010008D9010008D901000818
:10006000D9010008D9010008D9010008D901000808
:10007000D9010008D9010008D9010008D9010008F8
:10008000D9010008D9010008D9010008D9010008E8
:10009000D9010008D9010008D9010008D9010008D8
:1000A000D9010008D9010008D9010008D9010008C8
:1000B000D9010008D9010008D9010008D9010008B8
:1000C000D9010008D9010008D9010008D9010008A8
:1000D000D9010008D9010008D9010008D901000898
:1000E000D9010008D9010008D9010008D901000888
:1000F000D9010008D9010008D9010008D901000878
:10010000D9010008D9010008D9010008D901000867
:10011000D9010008D9010008D9010008D901000857
:10012000D9010008D9010008D9010008D901000847
:10013000D9010008D9010008D9010008D901000837
:10014000D9010008D9010008D9010008D901000827
:10015000D9010008D9010008D9010008D901000817
:10016000D9010008D9010008D9010008D901000807
:10017000D9010008D9010008D901000800000000D9
:10018000D9010008D901000817481849184B9942AD
:100190003CBF50F8042B41F8042BF8D3154B1649FB
:1001A0004FF000028B4238BF43F8042BFAD3DFF83C
:1001B0004C00016841F470010160BFF34F8FBFF341
:1001C0006F8F0F480047FEE7FEE7FEE7FEE7FEE71A
:1001D000FEE7FEE7FEE7FEE7FEE7000009480A4902
:1001E0000A4A0B4B704700009802000800000020EC
:1001F00000000020000000200006002088ED00E044
:100200001D0200080000002000060020000200205F
:100210000002002070477047704700001B48C16C07
:1002200041F0020141F0100141F00101C1644FF0C1
:100230009040016821F0030101601548016821F038
:10024000300141F0100101601248016821F4403191
:1002500041F4803101600E48416941F0040141617F
:100260004FF09040016901F00104AC42F8D02546FE
:10027000002DF5D00648416981F00401416105482F
:10028000416981F480714161EAE700000010024099
:080290000004004800100048C2
:040000050800021DD0
:00000001FF
